:020000040800F2
:10000000B82F00204D020008DB46000875430008A9
:10001000D9460008490400086F5A00085F0200082A
:10002000000000000000000000000000594C000823
:100030003F05000800000000F54900085B4C00087F
:1000400069020008690200086902000869020008E4
:1000500069020008690200086902000869020008D4
:1000600069020008690200086902000869020008C4
:1000700069020008690200086902000869020008B4
:1000800069020008690200086902000869020008A4
:100090006902000869020008690200086902000894
:1000A0006902000869020008690200086902000884
:1000B0006902000869020008450500086902000895
:1000C0006902000869020008690200086902000864
:1000D0006902000869020008690200086902000854
:1000E0006902000869020008690200086902000844
:1000F0006902000869020008690200086902000834
:100100006902000869020008690200086902000823
:100110006902000869020008690200086902000813
:100120006902000869020008690200086902000803
:1001300069020008690200086902000869020008F3
:1001400069020008690200086902000869020008E3
:1001500069020008690200086902000869020008D3
:1001600069020008DD46000869020008690200080B
:1001700069020008690200086902000869020008B3
:1001800069020008690200086902000869020008A3
:100190006902000869020008690200086902000893
:1001A0006902000869020008690200086902000883
:1001B0006902000869020008690200086902000873
:1001C0006902000869020008690200086902000863
:1001D0006902000869020008690200086902000853
:1001E0006902000869020008690200086902000843
:1001F0006902000869020008690200086902000833
:100200006902000869020008690200086902000822
:100210006902000869020008690200086902000812
:100220006902000869020008690200086902000802
:100230006902000869020008DFF80CD000F04AF8F3
:100240000048004751740008B82F00200748804735
:1002500007480047FEE7FEE7FEE7FEE7FEE7FEE7AA
:10026000FEE7FEE7FEE7FEE7FEE70000F54C0008CC
:1002700039020008D2B201E000F8012B491EFBD27E
:1002800070470022F6E710B513460A4604461946A1
:10029000FFF7F0FF204610BD421C10F8011B00299B
:1002A000FBD1801A704730B50B4601460020202252
:1002B000012409E021FA02F59D4205D303FA02F573
:1002C000491B04FA02F52844151EA2F10102F1DCD3
:1002D00030BD00001CB50948009009480190054652
:1002E000009C06E0E06840F0010394E807009847AE
:1002F0001034AC42F6D3FFF7A3FF0000D47A000815
:10030000F47A00080146C06D836F826F13F0500FBE
:1003100007D0D20648BF00F0EFBC006F826E0846DF
:10032000104742F40071816701680B68CA681B07B7
:1003300003D4910707D000F0DDBC12F4406FFAD16E
:10034000C9688904F7D4816F21F480718167816F56
:10035000C9045EBF816F41F00101816700F0CABC32
:10036000C06D816F41F040018167C16F41F00401B0
:10037000C16700F0C1BCC06D00F0BDBCB0B5016884
:1003800004468A688868C0074FF0000022D012F047
:1003900002021FD1886800F00D00012818D188687A
:1003A000284A1040023088600320086001F0D6FC23
:1003B000054620688068C00704BF0020B0BD01F07A
:1003C000CDFC401B0328F4D320688068C007F0D020
:1003D00004F083FAB0BD00BF70B5044600688168C0
:1003E000C90713D1174E816806F17F02114201D06F
:1003F00004F030BA012101608168314041F001010F
:100400008160AF49884203D1206A08B1002070BDE5
:1004100001F0A4FC054620680168C907F6D181688F
:10042000C90701BF8168314041F00101816001F0DD
:1004300095FC401B0328EED320680068C007EAD172
:10044000D6E700BFC0FFFF7FFEE741EA000313438A
:10045000002908BF1146002818BF014681EA0300A1
:10046000000C18BF0120704748B190F8200049B136
:1004700091F8201088421CBF0220704702E041B171
:1004800091F820002AB192F8201088421CBF032066
:100490007047002070472DE9F043D2F800C085680E
:1004A000C9B14FF6FC7E00274FF6FF7800264FF0CB
:1004B000000901EA0E03AF4224D29E4222D0046812
:1004C0002FB124EA0804B146344354F82C4004EA1E
:1004D0000E060137EFE700234FF6FC784FF6FF7E5C
:1004E00000264FF000099D420BD007682BB127EA88
:1004F0000E04B146344354F82C7007EA0806013361
:10050000F1E72F4639B14FF6FC7319408E421CBFFC
:100510000120BDE8F0834088976046EA004149EA3F
:100520000043D160536051F82C1029B14FF6FC7391
:1005300000041940084310610020BDE8F0837047B3
:1005400072B6FEE7014801F0EBB900BF28060020B3
:100550007CB504460020019094F87400012804BF83
:1005600002207CBD01200D4684F8740004F07CF963
:10057000A16F10B141F010019DE041F2021021EA9B
:1005800000004F490230A0672068884244D04D499E
:1005900040F255430A6809686FF31F329A421CBF44
:1005A00040F276439A4256D104F0BDF9002861D159
:1005B00020680922816862F31B61444A8160BFF3AD
:1005C0005F8F2068D0F8C81062F31F21C0F8C810F0
:1005D000BFF35F8F206804F08AF904F045F92168C1
:1005E0003B4AB5F1011F01BF8B68134043F48033D0
:1005F0008B6002F580328B681A4042F000428A60BC
:10060000314A8B68B3F1FF3F34DC019B0133019326
:10061000019B9342F5D948E04D6CCE68C86820F044
:100620000300C860486C20F00100486408460021BF
:1006300003F0F2FE05F0010006F003022168224BF0
:100640008D68B5F1FF3F0EDC019D01350195019DDF
:100650009D42F5D929E040F281439A420FD1B1F190
:10066000405FA1D212E0CB681A43CA604A6C1043C3
:1006700048640020A16F012262F301011BE040F2F7
:1006800082439A4202D1090F02298DD8294603F0EC
:10069000C3FE20680C498268B2F1FF3FE9DC019A91
:1006A00001320192019A8A42F5D9A06F40F0100000
:1006B00020F002010120002284F87420A1677CBD93
:1006C00000100246004004E07F6B2B021102030081
:1006D000C0FFFE7F2DE9F84F04460020009094F8FB
:1006E0007400012804BF0220BDE8F88F01208B466A
:1006F00084F8740020688168490700F17981E94D28
:10070000DBF80060A84200F09F80310296FAA6F163
:10071000B1FA81F108BFB10E012201F01F0102FA06
:1007200001F1C26911433246C161DBF8041003F0E4
:1007300023FE20688168826801F0040102F008024B
:10074000891840F0EA80DBF80010DBF8082003F09D
:100750003BFEDBE904212068C368042A40F0938053
:10076000016E076E4FF01E0CDBF800100CEA976765
:1007700091FAA1F631F07F4EC1F38462B6FA86F3A6
:100780001E4608BF1646B74211D1026E01F0F8416D
:1007900002F0E06242EA41010166DBF8001091FAE2
:1007A000A1F3C1F3846221F07F4EB3FA83F31E46B6
:1007B000BEF1000F08BF1646476E476E0CEA9767FA
:1007C000B74211D1426E01F0F84102F0E06242EA14
:1007D00041014166DBF8001091FAA1F3C1F3846294
:1007E00021F07F4EB3FA83F31E46BEF1000F08BF1F
:1007F0001646876E876E0CEA9767B74211D1826EF4
:1008000001F0F84102F0E06242EA41018166DBF862
:10081000001091FAA1F3C1F3846221F07F4EB3FA84
:1008200083F3BEF1000F08BF1346C26EC26E0CEA1E
:1008300092629A4271D1C26E01F0F84102F0E06218
:1008400042EA4101C16668E001F082FAB0F5805FDA
:1008500040F0DE80DBF800009349884200F0CE8053
:100860009249934E884200F0CD809249884200F030
:10087000CF80B04200F0C9808F49884214BF06463D
:1008800006F10666C4E0062606EA53034FF07846F2
:100890009940DBF8003006EA43030B4300F16001A6
:1008A00051F8226006F0E066334341F82230DBF86D
:1008B0001020DBF81C3051F8226026F0807633439C
:1008C00041F822309BF81A30DBF81020012B16D1AA
:1008D00051F822309BF8196023F00073002E08BFF6
:1008E00003F1007341F82230012EDBF8102051F89B
:1008F000223023F0806308BF03F180630BE051F8DE
:10090000223023F0007341F82230DBF8102051F838
:10091000223023F0806341F822308168C90740F01B
:10092000CA81D0F8C030DBF80C60DBF80010A846B4
:10093000E44D06F0180721F07F42FD4093430D403F
:100940002B4316F5803FC0F8C03021D162B191FA37
:10095000A1F1B1FA81F29106013202F01E03092BD6
:100960000CD803F097FF0DE0012202EB916202F038
:100970001E03C1F3846201320A2BF2D303F08AFF13
:1009800041F00071DBF8082003F01EFDDBF80010D9
:10099000B1F1FF3F00F38F812568CB4E40462A46D8
:1009A000B54218BF4246D2F808339068C0071FD13D
:1009B000C64803F0E07C814208BF13F4000000F059
:1009C000A980C348814240F0C4800020B0EB1C6F76
:1009D00040F0BF80454518BFB54240F06D81D2F868
:1009E000080320F0E07040EA0C0040F08070C5E0A1
:1009F000A06F40F02000A06701205DE1B54800F144
:100A0000807605E006F1846602E0B04800F1816678
:100A1000DBF80400216902282ED141F01000B4490E
:100A2000884209D1C6F38460012101FA00F02168EF
:100A30008A6A22EA00008862DBF80000B0F1FF3F1A
:100A400000F339812168A04A914208BF0D46A149AF
:100A5000D5F80863884200F09480A249884200F0EB
:100A600093809B49884200F099809849884240F0E1
:100A7000108106F0A07093E041F010019C4A914271
:100A80001CD1300296FAA6F0B0FA80F008BFB00E82
:100A9000012100F01F0001FA00F021688A6A10436A
:100AA000886295E000100246001000B2002000B6F7
:100AB000000020D6000020D7004000BA96FAA6F128
:100AC00036F07F4A2F46C6F3846800F01F02B1FA61
:100AD00081F9494608BF41460F23D4F88850914018
:100AE00003FA02F2A36A25EA02021143B3EB900F64
:100AF000C4F888100CD901F02BF9B0F5805F3D46A1
:100B000060D8BAF1000F53D030035BD1C84654E02F
:100B10003D465DE0454518BFB54240F0CC80D2F877
:100B200008036E4920F0E07040EA0C0040F4000039
:100B3000C2F8080368480068B0FBF1F0022101EB3D
:100B4000400000900098002800F0B580009801381F
:100B5000F7E700205F4FB94208BF13F4800140F06F
:100B6000AB80454518BFB54240F0A680D2F80803D7
:100B700020F0E07040EA0C0040F48000C2F8080366
:100B800099E006F0C0700BE0D5F8081306F0C070CD
:100B900021F0E0710844C5F808036CE006F4400059
:100BA000D5F8081321F0E0710844C5F8080370E097
:100BB00006F0E040B0F1984F04D9A8F109000121F6
:100BC00001FA00F6DBF804102068324603F0D4FB8B
:100BD000DBF808202068314603F0F6FBDBF8002044
:100BE000B2F1FF3F67DC236837482F46194683423E
:100BF00018BF2946D1F808633B4DAA4206F0E070C1
:100C000008BF16F400050BD0384DAA421AD10025B2
:100C1000B5EB106F16D103F0B2FE40F0807036E0F5
:100C200003F0ADFE40F40000C1F80803EF48F049BE
:100C30000068B0FBF1F040000090009848B30098C5
:100C40000138F9E7234D06F4800CAA4208BFBCF135
:100C5000000F18D0BB421CD122498A4208BFBCF108
:100C6000000F16D1D7F8081321F0E071084340F4C3
:100C70008000C7F8080301F06BF8B0F5805F08D872
:100C800003F079FD05E003F07AFE40F48000C1F83E
:100C9000080301F05DF8B0F5005F0CD11048DBF8F7
:100CA000002000F1807100208A4208BF16F4800104
:100CB00002D103F060FD0020002184F87410BDE82B
:100CC000F88F00BFFFFF0F0000800242000008CE37
:100CD000000004CA0100008008000020400D03004D
:100CE000000020D6001000B2002000B6004000BA7C
:100CF00010000080704770477047000080B3F8B55F
:100D00000446806F28B9204600F082F903F069FD9F
:100D1000E06721688868800041BF8868B24A104057
:100D200088608868C00015D4AF488A6800F1805098
:100D30001040AF4A00F180508860AC480068B0FBBA
:100D4000F2F0022202EB40000090009810B10098EF
:100D50000138F9E78868C00004D403F0BEFD02E062
:100D60000120704700208A68A36F02F0040203F09C
:100D70001003D218A26F1CD122F481720232A26732
:100D80008A68D2079B4A2DD1DD4B994216D09142F9
:100D900017D1D368D4E90156013EB60866F3830340
:100DA000D360AB0CD2F8085363F39545C2F80853EF
:100DB00018E042F01000A0670120F8BD03F108051B
:100DC00001E002F108052D68ED070BD199420B46B1
:100DD00018BF1346D3F80853666825F470153543D9
:100DE000C3F80853914258D094F82420636C43EA26
:100DF0004232A3681A4394F82C3042EA0342012B92
:100E000004D1236B7C4D05EB43431A43636B23B141
:100E1000A56B03F478732B431A43CB68774D2B40B3
:100E20001A43CA608A688B6802F0040203F0080360
:100E3000D21863D1B24A44F203058A1A18BF0122BC
:100E4000E36B03FA02F2237F42EA8332CB68AB43BF
:100E50001A43CA60E2684AB10B6F43F6FF75AB43B1
:100E60001A430A670A6F42F000420A670A6994F857
:100E70005430012B39D1624B04F1580702EA030CBC
:100E8000E8CFA26E45EA0C0545EA034333433B43F2
:100E900043EA920242F0010229E094F82450217FB3
:100EA0006B0343EA8131D4E904363143666C002E8A
:100EB00023F0004618BF41F48051B3F1FF3FC8BF93
:100EC0004FF40016314394F8406041EA460C94F820
:100ED0002C60012E1FD1E5B1A56F45F02005A56757
:100EE000E56F45F00105E56715E022F001020A61B2
:100EF000226D0B6923F070431A430A610A6B236960
:100F000022F00F02012B02BFA36A013B1A430A63BE
:100F100058E04CF4803C656B2DB1A66B05F4E07590
:100F200035434CEA050CD568364E354045EA0C058C
:100F3000D560256A15B1566C35435564E56E15B11B
:100F4000566C3543556494F85450012D09D104F181
:100F50005807A16EE0CF35433D43294341F00105D9
:100F600000E000251169284E314029431161D4E980
:100F70001215566926F0070631435161B3F5001F7B
:100F8000516921F0700141EA0511516104D093B912
:100F9000916A61F00F030DE0916A1C25D4F8883046
:100FA000A16A05EB81016FF00F0501F01C0105FA44
:100FB00001F10B439362D168144A1140614507D196
:100FC0000021E167A16F012262F30101A167F8BD71
:100FD000A06F40F0100020F00200A067E06F40F02A
:100FE0000100E067E8E600BFC0FFFF5F08000020E7
:100FF000400D0300001002460000FEFF13C0F0FF8A
:101000001EF800FC0D80DEFF02FCFFF7F3FF3F83BC
:10101000F0B5CFB034AD04464C2105F12000FFF708
:1010200030F902A8C0210830FFF72BF920683449B5
:10103000884263D100264FF400400396029002A834
:1010400001F0D0FE08B1FFF77BFA2E48016841F4A9
:10105000806101601421006800F48060019021200B
:101060004596CDE93566CDE9376634900120CDE966
:101070003D004FF400303B9002203A904FF40020A6
:101080003990019805F12C00FFF7FBF81E4F284618
:1010900007F11806314600F0BFF808B1FFF750FA23
:1010A00038460021324600F0DDFA08B1FFF748FA71
:1010B000154800F093FB08B1FFF742FA1348144AB1
:1010C000002102608122C0E90E11C0E91011826482
:1010D00000F0E2F908B1FFF733FA0C4D0A4928464F
:1010E00000F028FB08B1FFF72BFA28461021EC6529
:1010F000256700F0FBFB08B1FFF722FA4FB0F0BD07
:10110000008002428C0C024660000020280600206D
:10111000D0000240F0B59BB003F08BFB03D494F8F1
:101120007400012802D102201BB0F0BD0120164638
:101130000D4603F0EFFB18B103F053FB0120F3E77A
:101140002168A06F40F601722E4B904300F580702D
:101150009942A06702D0A06FC00401D4002002E031
:10116000E06F20F00600E0671C20294ADFF898C0F5
:10117000264F0860002084F87400206F994200F127
:10118000600E8EE884104A6842F010024A6002BF86
:10119000DA6842F00102DA6090F85020120606D4B4
:1011A0008269012A15D0022A08BFB60012E0406FFA
:1011B00068B1016859B1684600F0D8F80028BDD17F
:1011C0000698012812D0022808BFB6000FE00120BF
:1011D00005E0760040312A46334600F058FC21688D
:1011E0000C4B8A681A4004328A609DE77600206FB3
:1011F0002168426F40311268C2E90261156100F056
:1012000023FBECE7001002466103000877030008A7
:1012100005030008C0FFFF7F002874D0002972D0AA
:10122000F0B500F11006C26B78CE344322431A4366
:101230002A430A6003789B0614D500F124054FF079
:101240007C77866B38CD07EB0454354304F07C740F
:101250002C434FF47C7505EB031303F47C73234399
:101260001A430A60426840F27F24036B22401A430B
:101270004A60C368B3F5007F05D0B3F5806F04D131
:101280000478A40601D51A434A60436C43B1046C48
:10129000856C224305F03F0442EA04421A434A6047
:1012A000B0F868308B60027892072F4A21D5C46C61
:1012B0004FF0805502EB0444144023438B60046DCF
:1012C00005EAD4044FF0005523448B60446D05EAD1
:1012D00094044FF0804523448B60846D05EA5404E8
:1012E00023448B60C46DB4F1FF3FDCBF03F10043C6
:1012F0008B60036ECB60436E0B6103689C0704D464
:101300004FF4A0602BE001207047036D002B00D547
:101310005B426FF35F3302F1C0544B61456D2E04A5
:10132000002D48BF05FB04F6344023434B61836D19
:10133000002B00D55B429BB202F178428B61C46DF9
:101340002504002C48BF04FB02F545EA03028A612C
:10135000036898074FF4E06058BF4FF4A06018434B
:1013600008620020F0BD00BF0000FF07C0B3B9B3A2
:10137000B0B591F82020474C02600B6803F00803D9
:1013800003610B6803F4002343610B6803F003035C
:1013900083610B6803F44033C3610B68C3F3051327
:1013A000013343620B68C3F30553013383620B6857
:1013B00003F04023C3620B68234083630B6803F48C
:1013C000C053C3634B689C050CD403F07F03436098
:1013D0004B795B0754BF00234FF48063C36005E083
:1013E000012155E04FF40073C36043604B689207DE
:1013F00003F4006383604B6803F4404303644B6869
:1014000003F040734364CB8803F03F0383644B686D
:1014100003F0404303630B8983660BD40122C2644B
:10142000CA6802660A6900214266C0E91411C0E96F
:1014300016112BE04A896FF3DF220132C264CA68B9
:1014400002660A6942664B696FF35F330365CA8AB5
:101450006FF35F3242658C68E50042BF5B42036513
:101460008C68A30044BF524242650B8B83658A6936
:10147000120CC2658C68650042BF5B4283658C6854
:10148000B4F1FF3FDCBF5142C1650021BDE8B0406F
:10149000084670470020000CB0B5044600F05EFC22
:1014A000C4B10546022084F85400002084F84C00A2
:1014B0002068416941F00601416120684169C9071E
:1014C0000AD000F04BFC401B0528F6D9012003226E
:1014D00010218BE00120B0BDD4E90E121143494A1E
:1014E000904259D0484A90421CBF484A904253D03B
:1014F000474A904250D0474A90424DD0464A904287
:101500004AD0464A904247D0454A904244D0454A44
:10151000904241D0444A90423ED0444A90423BD00F
:10152000434A904238D0A54A904235D0A44A9042CE
:1015300032D0A44A90422FD0A34A90422CD03D4AA8
:10154000904229D03C4A90421CBF3C4A904223D052
:101550003B4A904220D03B4A90421DD03A4A9042AA
:101560001AD03A4A904217D0394A904214D0394A98
:10157000904211D0384A90421CBF384A90420BD05A
:10158000374A904208D0914A904205D0904A904202
:101590001CBF914A904231D1226C1143426922F41E
:1015A00043021143416100210164626C4264834A39
:1015B0008164C1640165904211D0814A90421CBF90
:1015C000804A90420BD0804A904208D07F4A904295
:1015D00005D07F4A90421CBF7F4A90420AD14165A4
:1015E0008165C1670122A06C20650020A16584F897
:1015F0005420B0BD774A9042F1D0F2E7754A90424C
:10160000CAD0CBE750000240D00002405001024057
:10161000D001024050020240D0020240500302407A
:10162000D003024050040240D00402405005024062
:10163000D005024050000250D0000250500102502C
:10164000D001025050020250D0020250500302500A
:10165000D003025050040250D004025050050250F2
:10166000D005025050B12DE9F04186B0154682B147
:1016700004464069012803D1042009E00120704795
:1016800027682A460E463846FEF7DFFE20B10520C1
:101690002061012003F009B9384631462A46FEF799
:1016A000E3FE0028E8D102208F4A20730020206149
:1016B000286A03F06AF961F39A624FB196B117464E
:1016C000CDF8048001AA03F031F998B10620DFE7D4
:1016D000DEB14FF6FC702840104346F82800266023
:1016E000022021E04FF6FC703840104345F82800F6
:1016F000256017E0A0680399814209D1606858B15C
:101700004FF6FC710840384304E0012025600BE0EF
:1017100056F8280045F828004FF6FC70284038435A
:1017200046F82800A0680130A060002003F09FF870
:10173000B0E700BF68B161B190F8542090F8543020
:10174000022B18BF052A06D1002180F84C10402139
:101750008165012070470A7B022A02BF01200861CF
:1017600070470268154B9A4211D0154B9A421CBF24
:10177000144B9A420BD0144B9A4208D0134B9A4206
:1017800005D0134B9A421CBF124B9A420CD1036DE9
:101790004A68812B03D122B1416700207047002A9B
:1017A000FAD004200861D4E70B4B9A42EFD00A68C4
:1017B00092F820209207EAD50320F3E75006024072
:1017C000D006024050070240D007024050060250A7
:1017D000D006025050070250D00702502DE9F041C8
:1017E00086B078B1066804462EB1606828B1B04270
:1017F00006D1002507E0022003E06069012805D139
:10180000042020610125284603F04FB8022000255E
:10181000002120732561376A07F0020000F10508F6
:101820002046CDF8048001AAFEF735FE79082E4A3D
:101830004FF6FC7061F35962304061F39A6204998B
:10184000104402F0A0FFDEE7002844D0436F002BD5
:1018500041D010B590F8544002685169012C04D071
:10186000022C3AD111F4803137D090F8541001296C
:101870002BD190F84C400221012C30D002F0B5FF62
:10188000012180F84C10516941F4BA415161416E17
:1018900019B1516941F400715161006F18B150697B
:1018A00040F40050506118684FF6FF710E4B20EA6B
:1018B000010111604FF6FC710140006A400860F3BD
:1018C000596360F39A635818D0675069002140F05B
:1018D0000100506103E0012103E002F072FFBDE866
:1018E00010400846704700BF000001F80246012082
:1018F000AAB1CB0612D5136840F6FF7201F01101B0
:1019000023EA020203F57B63C3F3C4139840112951
:1019100051680CBF084321EA000050600020704766
:1019200010B5044600680C21024661F30B021168F1
:1019300000F57B62C2F3C412D140C90700F0A68053
:101940000169490509D54169490506D54FF480610A
:10195000C160A16D41F00101A1650169090509D5C9
:101960004169090506D54FF40061C160A16D41F0E0
:101970000201A1650169C90409D54169C90406D5F7
:101980004FF48051C160A16D41F00401A16501696E
:10199000490409D54169490406D54FF48041C16025
:1019A000A16D41F00801A165016989050AD5416968
:1019B000890507D54FF40071C160616E11B12046F1
:1019C000884720680169890427D54169890424D59D
:1019D0004FF40051C16094F85410042915D14169A5
:1019E00021F400514161416941F00201416101214D
:1019F00084F8541094F85020120641BF626F11739E
:101A0000002181640020E16E39E0052184F8541042
:101A1000216F11B12046884720680169C90520D58A
:101A20004169C9051DD594F85010090604D4816C8C
:101A300069B904F1540108E0C16F41B9816C31B951
:101A4000012184F85410616F0C3101220A700021C9
:101A500084F84C104FF44071C160216E09B12046EA
:101A60008847A06D90B12068416941F00201416151
:101A700002F03AFE44BF616F08730020A16E84F843
:101A80004C0019B12046BDE81040084710BD30B1E8
:101A900070B590F84C40012C03D1022070BD01209C
:101AA0007047012480F84C4090F85440012C24D118
:101AB000022480F85440002484650468456EA66CB6
:101AC000C3EA0603A3644FF4FE43E360E1642265C6
:101AD000616941F4BA4161611DB1616941F400710C
:101AE0006161006F18B1606940F400506061606925
:101AF00040F001006061002070BD002180F84C10B2
:101B000040218165012070BDB0B5044600F026F982
:101B10000546CC48611C007818BF044400F01EF94B
:101B2000401BA042FAD3B0BD2DE9FC4F7A4A4FF0DA
:101B3000000C7A4D01234FF0000E4FF000090027F2
:101B4000019002EA902200920C6834FA07F208BF72
:101B5000BDE8FC8F03FA07F214EA020800F0D48013
:101B6000019BAB4227D0D1F804A04AF01002122A00
:101B700051D10CF01C020F2303FA02F46FF003039F
:101B800003EA5705019B1D442E6A26EA04040E69E8
:101B900006F00F0606FA02F222432A6203220468C4
:101BA000D1F804A002FA0EF224EA02020AF00304B9
:101BB00004FA0EF439E028681C2390434A6802F0C6
:101BC0000102BA401043574A286052F809004A44BB
:101BD000D2F804B06FF0030202EA5B0203EA8B055D
:101BE0000F23024403FA05F60B23146A03FA05F5E2
:101BF0000323B4432C4314624FEA4B0203FA02F46A
:101C00000568022325EA040403FA02F22243026073
:101C1000D1F804A00CE003230AF00302056803FADC
:101C20000EF402FA0EF225EA04042243BB460260D7
:101C30000123BAF1120F22D803FA0AF212F0061F9A
:101C400018D0CA684FEA4B04866802FA04F50322EA
:101C5000A2409643354303FA0BF685604FEA1A1506
:101C6000436805FA0BF5B3432B43BAF1030F436006
:101C700009D147E0BAF1030F01D1284D44E04FEA02
:101C80004B040322A240D243C3681A408B68A3408E
:101C90001A43C2605FEACA0234D527F00304204E1B
:101CA00009F018020F2334449340256E25EA0303FC
:101CB000009D05FA02F21A43226632684C6842EA35
:101CC0000803E50258BF22EA08033360A5027268E0
:101CD00042EA080358BF22EA08037360A503D6F856
:101CE000842042EA080358BF22EA0803C6F8843079
:101CF000E403D6F8802042EA080358BF22EA08032A
:101D0000C6F88030054D01230CF1040C0EF1020ED3
:101D100009F10809013717E77F7F2F00000002460D
:101D200000200246147A00080069084018BF01200C
:101D30007047426902EA0103914341EA034181612C
:101D400070471823002A08BF2823C150704700009D
:101D500001480068000C7047004004E00548006836
:101D6000704700BF3748034900780A68104408608C
:101D7000704700BFB40B002080B51048016841F4E3
:101D800080710160032000F0A9F801F0F1FB0C491B
:101D90000C4A096801F00F01515CC8402B490860EA
:101DA000042002F099FA0F2000F00EF808B101208B
:101DB00080BD00F04DF8002080BD00BF0020024033
:101DC000200C0246047A000870B51E4E0446307896
:101DD000C8B11D49096849070AD402F0B3FA0228BC
:101DE0001DD0012823D050BB30784FF4FA5101E0C8
:101DF0004FF47A71B1FBF0F014490968B1FBF0F0CF
:101E000002F090FA08B1012507E04FF0FF302146BB
:101E10000022002500F03CF87460284670BD307840
:101E20004FF47A71B1FBF0F04FF40041E6E73078FF
:101E30004FF47A71B1FBF0F04FF4FA41DEE7002085
:101E4000DEE700BF0000002010E000E008000020F6
:101E500081B00648016841F004010160006800F0AB
:101E600004000090009801B0704700BF940C024637
:101E7000002809D41C21012201EAD00100F01F0032
:101E800002FA00F0014A8850704700BF00E100E00C
:101E9000F0B5184B4FF0FF361C68C4F30224E51E62
:101EA00084F0070438BF002506FA05F7BA43042C6E
:101EB00028BF042406FA04F4A14300F00F04A9404B
:101EC000043C1143044A234409010244002848BF4A
:101ED00003F10C021170F0BD00E400E005494FF67B
:101EE000FF030A681A4060F30A220348104308609F
:101EF000704700BF0CED00E00000FA0501688A6938
:101F000042F000628A610122C0F8D824002280F8E1
:101F1000CC24034A486D104348650020704700BF39
:101F2000030000107047006841620020704700689D
:101F3000436AC9B170B5846A0139002503EB1443C3
:101F4000CCB2A54207D200EB85060135D6F8046174
:101F500003EB1643F5E700EB810043EA0241C0F8CA
:101F60000411BDE8704002E043EA024181620020B2
:101F70007047000063480068D0F8AC1109B1F12047
:101F800008477047F8B55F4A044611F00F0000EBB0
:101F900040001268D26902EB800000F14C0608BFD5
:101FA000161D356861B1A86E6A6C40B300203AB363
:101FB000E864A86620460022002300F091F91DE0A5
:101FC000307A01281AD12046002100220023AF6B6D
:101FD00000F034F9FB69E86C98421BD9296CCA18E7
:101FE000C11A99422A6438BF0B46397DC01AE86489
:101FF000204601B0BDE8F04000F072B9F8BD1046CF
:10200000A8640220286300206865706840F008001A
:102010007060F8BDA86E012808D1397D20460022E5
:102020000023002600F05CF9AE66F8BD0220E96DE1
:10203000286300206865686CA864706840F0080038
:10204000706011B105F13000884704203072F8BD8E
:10205000F8B52C4A044601F00F0000EB400012686E
:10206000D26902EB8006756861B1204600F0B7F8CE
:10207000A864022000212863B068696540F0080068
:10208000B0601BE0307B022818D120460021AF6BE6
:1020900000F0A5F80346D5E9110119448142A9646D
:1020A0000DD92720E96D6865B06840F00800B06080
:1020B00021B105F13000BDE8F8400847F8BD0CD06B
:1020C000F869834209D1286C397DC21820462A64F8
:1020D00001B0BDE8F04000F0B1B8B06840F4407025
:1020E000CEE700BF10B5074C2068D0F8AC1111B195
:1020F000F22088472068406A18B1BDE8104004F01B
:1021000087BC10BD9405002001F00F0249B202EB1C
:10211000C202002900EB820303F5157248BF03F1E8
:1021200014020068114603F009BB10B5044601F023
:102130000F0002F0EBFAC3BF002281F8552201F52F
:1021400015710122DCBF4A751431087094F89404AB
:10215000012804BF022010BD02F00CFC03F0A2F81D
:1021600002F08CBBB0B5044601F00F00227990421A
:1021700001D901251AE002F0C9FAC3BF002281F893
:10218000552201F515710122DCBF4A751431087022
:10219000002594F894048D70012801D1022505E0F2
:1021A00002F0E8FB03F0B6F984F894542846B0BD79
:1021B00010B502F0CFFA04BF022010BD01204AB2D0
:1021C00084F894042068B2F1FF3F02DD03F0F1FAD5
:1021D00003E001F00F0103F009FB02F04FBB01F037
:1021E0000F0101EBC10100EB8100D0F868027047DC
:1021F000B0B5044601F00F0002F088FAC3BF002515
:1022000081F8555201F515710125DCBF4D7514316A
:102210008A600B7108704A7802B14883022B04BFB0
:102220000020487194F89404012804BF0220B0BD36
:1022300002F0A0FB02F0BEFF02F071BBB0B501F0EE
:102240000F01002501EBC10400EB840404F51877AD
:1022500084F8541284F8555204F515712CC783790B
:10226000012B08BFC4F870221A46006803F094F9E5
:102270000020B0BDB0B5044601F00F0500798542DD
:1022800084BF0120B0BD48B2B0F1FF3F09DD01EBD2
:10229000C100002104EB800080F8551200F5157193
:1022A00007E005EBC500012104EB8000417500F15A
:1022B000140194F8942401200D708870012A04BF41
:1022C0000220B0BD84F89404206803F04AF92DB9C7
:1022D000A179206804F29C4203F0F0F802F01FBBE1
:1022E000B0B501F00F0505EBC50100EB81042146F7
:1022F00001F8145F002501F10C072CC701234B7076
:102300008379012B08BF22631A46006803F044F961
:102310000020B0BD2DE9F04F89B0056882462846FF
:1023200003F090FA10B109B0BDE8F08F02F0EEFAB8
:102330000028F8D0D5F80808C0F30D20CAF8D40456
:1023400002F0E4FA02F03AFB05F50066890742BFA5
:10235000416901F00201416103F0A0FA02F02EFB95
:10236000CDE90465C9063CD5816921F01001816180
:102370002C6AC4F3434004F00F05062818D0022845
:1023800027D147F6F07014EA000622D005EBC5000D
:10239000340922460AEB80070598D7F8601203F04B
:1023A00081FAD7F8600200EB1610C7F8600207E068
:1023B0000AF29C410598082203F074FAC4F30A1447
:1023C00005EBC5000AEB8000D0F868122144C0F884
:1023D0006812DAF80000816941F010018161DDE9DD
:1023E000046503F05BFA02F0E9FA090340F1DA80D0
:1023F00003F033FA06460AF29C400AF51D744FF4C6
:1024000030684FF0000B0890002E00F0C880F007F5
:1024100000F0B8805FFA8BF9DAF80000494603F063
:1024200035FA0746C0075CD005EB08000121816042
:10243000DAF8000008EB0001036C8A689AF806508D
:10244000012D24D115072FD4950647D412F0280F5B
:10245000059D46D1AC46DC4DAB4202D9120400F1D9
:1024600098802268096965466FF3DF41511AB8F513
:10247000306F44F80C1C2CD1DAF86422002A00F0EA
:102480008C80DAF860020844CAF8600221E0CE4D80
:1024900005F58075AB4211D11004059D0AD4900654
:1024A00044BF2020886014E0C748059D834218D9A6
:1024B000100416D54FF40040886012E0B8F5306F74
:1024C000059D06D1DAF8641219B90021089A02F0C4
:1024D000F5FF50464946FFF7BBFD02E0202088602B
:1024E000059D380722D505EB08000821B64B816011
:1024F000DAF800100A6C08EB010081689A4212D9E0
:10250000090444BF4FF400418160504600F08CFB49
:102510009AF80600012809D1DAF800000121089A8A
:1025200002F0CCFF02E0504600F07EFBF80642BF0E
:1025300005EB080010218160B80716D56869000610
:1025400041BF0499486840F48060486014F81D0C4D
:10255000012806D10020494604F81D0C504600F021
:102560006AFA05EB080002218160B80642BF05EB5C
:10257000080020218160B80442BF05EB08004FF439
:1025800000518160243408F1200876080BF1010B1A
:102590003AE74FF4004065468EE7012196E7DAF806
:1025A0000000049E03F07AF902F008FA490340F1B2
:1025B000CA8003F04BF907460AF29C4000230290C0
:1025C00005F510600690002F00F0BB80F80700F0C2
:1025D000B580DAF80000D9B20793089103F044F906
:1025E0000446C00727D0079B0122716B03F00F0040
:1025F00002FA00F021EA00007063069800EB431035
:1026000082609AF80600012811D103EBC3000AEB9F
:102610008000D0E907121144016243B9DAF82400BE
:1026200028B9DAF800000121029A02F047FF50466B
:102630000899FFF7A7FC2007079B04D506980821F7
:1026400000EB43108160E00604D50698102100EBF2
:1026500043108160600604D50698402100EB4310CA
:102660008160A00718D52846194603F0BFF8079BDC
:1026700003EBC3000AEB800010F8171F012906D1F5
:10268000002101705046089900F0D4F9079B069884
:10269000022100EB4310816020064FD503EBC300FD
:1026A0000AEB800BD94659F8240FC84658F8042F76
:1026B000904243D35BF81C5FDAF80040811A03971D
:1026C0005746A94238BF0D4604EB431101F5106A85
:1026D0000BF1040617E0DBF80050801ABB79316873
:1026E0000093A84238BF0546ABB22046089A03F0D3
:1026F000ADF9306828443060D8F800004219D9F8A4
:102700000000C8F80020DAF81830E91C9BB2B3EBDF
:10271000910F28BF9042DED8BA46DDE90376904299
:10272000059D079B0AD803F00F00012101FA00F074
:10273000D4F8341821EA0000C4F834087F080133C3
:1027400041E7DAF8000003F0A9F8002802D4DAF82B
:10275000000017E0706820F0010070609AF8CC0467
:10276000012807D1002000218AF8CC045046FFF749
:10277000D9FB02E0504600F039FA02F09FF801F070
:102780000041416103F08AF8000502D4DAF8000044
:102790000AE0B068C0071CBF504600F0BFFA02F064
:1027A0008DF801F40061416103F078F8000118D55B
:1027B00002F084F801F0006141619AF8CC1429B16B
:1027C000504600F0ABFA0CE00A30544F01218AF871
:1027D000CC14406DC0F38300CAF8D0045046FFF714
:1027E000A1FB02F093F8C00402D4DAF8000053E031
:1027F000D5F80408102120F00100C5F80408DAF823
:10280000000002F0F3FF9AF8041005F510604FF68F
:102810007F32A9B182600139036823F40013036099
:10282000C0F80822D0F8003223F40013C0F80032B8
:10283000D0F8003243F00063C0F800322030E8E7FF
:10284000F06940F00110F0619AF80F0040B1D6F83D
:10285000840040F00B00C6F8840006F1440006E056
:10286000706942F22B010843706106F110000168A3
:102870000AF29C4241F00B010160306820F4FE60D6
:102880003060DAF800009AF8061002F017FE02F045
:1028900015F801F48051416103F000F802F08EF860
:1028A000890419D502F0C4FCDAF8000002F0BEFF7A
:1028B000DAF800408AF8070000F046FE9AF8072090
:1028C0000146204603F04AF8504600F077F901F03F
:1028D000F5FF01F40051416102F0E0FF000702D46E
:1028E000DAF8000007E0504600F088F901F0E6FF52
:1028F00001F00801416102F0D1FF000606D402F0A8
:1029000005F8C00219D4DAF8000038E0059901246E
:1029100040F27B25886920F0800088619AF80400E5
:102920008442ECD21AF80500012803D1E1B25046E6
:10293000FFF7EAFB24350134F0E705980AF13B0480
:102940000126012700F512659AF80400874211D28A
:1029500028686178012909D1B0F1FF3F06DC47F012
:1029600080002670C1B25046FFF7CEFB24342035DC
:102970000137E9E701F0A2FF01F480114161059CF4
:1029800002F08CFF800202D4DAF8000030E09AF8FE
:10299000042004F532610AF51F70012301249442DA
:1029A00021D20D680678012E14D1B5F1FF3F11DC5C
:1029B000DAF8D46405F4803506F00106B54209D191
:1029C000059EB56945F08005B56100F8013C756963
:1029D0002D0603D5243020310134E0E704994868FE
:1029E00040F40070486001F069FF01F4001141619A
:1029F00002F054FF400002D4DAF8000007E050462D
:102A0000FFF7B8FA01F05AFF01F08041416102F08E
:102A100045FF40077FF587ACDAF80000446861079E
:102A200004D55046FFF75EFBDAF800004168214309
:102A3000416078E470477047A0B37CB504460568F0
:102A400090F8950428B9002084F89404204600F0FA
:102A500059F8032084F895042948854204BF0020D2
:102A6000A071206802F024FD94E80F00257C0095F9
:102A700002F0EBFB70BB20680021002502F02DFF67
:102A800040BB207901210022002398420CD0A618D7
:102A90002432F38533757175C6E90755756235764D
:102AA0000133F2E70120704704F51571002200237D
:102AB000984208D00B70C1E902220A610A714A707B
:102AC00024310133F4E794E80F00257C009502F0EF
:102AD0003BFC20B1022084F8950401207CBD00203D
:102AE0006074012084F89504207B012804BF2046EF
:102AF000FFF704FA206802F01BFC00207CBD00BF39
:102B00000000044270B5BAB0054602A8C0210830E2
:102B1000FDF7B7FB274C296804F50030814247D107
:102B200000264FF480100396029002A800F05AF994
:102B300008B1FDF705FD204D286840F00100286030
:102B4000286800F0010001900A20CDE9376639902D
:102B5000022036904FF4C0503590019835A9204698
:102B6000FEF7E2FF286840F480402860286800F4FF
:102B7000804001900198A86840070FD4A86840F0F1
:102B80000400A860A86800F004000190019800F01B
:102B900011F9A86820F00400A86001E000F00AF92B
:102BA000492000210022FFF773F94920FFF760F95F
:102BB0003AB070BD000002428C0C0246B0B55B4DCD
:102BC00004462868406A08B103F022FFE079012436
:102BD00000284FF0010008BF02202968C1F88801D1
:102BE00003F032F828684462B0BD00BF4F48006867
:102BF000D0F8AC1109B1F320084770474B48006882
:102C0000D0F8AC1109B1F0200847704710B501F0B9
:102C1000A1FD04BF022010BD617401F0ABFE02F003
:102C20008DFE01F02BBE0000F8B505463F48082296
:102C300005F29C410068C469676807F16C0004F004
:102C400022FBA068012220F00E017A630020A1601F
:102C50007865B86497F96C20B2F1FF3FDEBF41F4AC
:102C60008070A060F8BDA073384610F8722F12B9BA
:102C700097F87320E2B1BE6B04F078FBB0F5807F6B
:102C8000786409D92046314602F048FF00202073BD
:102C9000A06840F400700DE003460020FA6B317D1F
:102CA000B86428463A64FFF7C9FA02202073F8BDD9
:102CB00041F40070A060F8BD10B501F04BFD04BFF9
:102CC000022010BD01F06CFE02BF816B41F4803127
:102CD000816302F068FD206802F01EFB01F0CEBDAA
:102CE000B0B501F037FD04BF0220B0BD012025685A
:102CF00084F89404284602F0DBFB206802F018FBFD
:102D00002068102102F072FD607B012802BFA86BD1
:102D100020F48030A86301F002BE00000348006880
:102D2000D0F8AC1109B1F420084770479405002091
:102D300070B51B490A6B02F44032824207D1B0F1F0
:102D4000011F22BF086840F48020086024E00A6860
:102D500022F4E0220243B0F5803F124888BF42F4DB
:102D600080220A6044F6206200230068B0FBF2F083
:102D7000421C1446013A0E6843F10005360401D4A2
:102D8000002DF6D154B10230421E0B6B1B0402D44D
:102D900001281046F8D10AB1002070BD032070BD93
:102DA0000C080246080000200548016841F08041F7
:102DB000016070470248016841F08051016070472E
:102DC000100802460248006800F44030704700BF17
:102DD0003C0802460248016841F001010160704769
:102DE000280802462DE9F84F04460068C54BC10784
:102DF00005D0216D1A6822F0030211431960810782
:102E000005D5616D1A6822F00C0211431960410763
:102E100005D5A16D1A6822F030021143196001072F
:102E200005D5E16D1A6822F0C00211431960C10690
:102E300005D5216E1A6822F440721143196081068B
:102E400005D5616E9A6822F0070211439960410628
:102E500005D5A16E1A6822F440621143196001067B
:102E600005D5E16E1A6822F4405211431960C1057C
:102E700005D5216F9A6822F0C00211439960410282
:102E800005D5616F1A6822F440421143196081052B
:102E900005D5A16F9A6822F44062114399604105FB
:102EA00005D5E16F1A6822F440221143196001052B
:102EB00006D5D4F880109A6822F4407211439960C4
:102EC00080049148834623D5D4F890004FEA7011CE
:102ED000042907D8DFE801F003081017170001F0F4
:102EE0007CFC03E0012614E001F0A8FC0646854BBB
:102EF00078B9D4F8900006E0DBF800105A4641F4A7
:102F00008031CBF80010596821F0E0010843586087
:102F100000266078400601D4374628E0D4F89400B3
:102F20004FEA3020042808D83746DFE800F00309CC
:102F30000E16160001F051FC04E00127012517E0F0
:102F400001F07CFC6F4B074607E0DBF800005946B8
:102F5000374640F48030CBF800003D4647B9D4F8FE
:102F600094005968002721F4E06108435860354611
:102F70006078000613D5D4F8A8004FEA3030052851
:102F800000F27181022800F071813E4647B9D4F801
:102F9000A8009968002721F4E041084398602E4674
:102FA000A078C0071CD0D4F88800042807D8DFE830
:102FB00000F00D03090D0D0001F064FC06E001278F
:102FC00001250EE001F03AFCB44B07463D4647B9F7
:102FD000D4F888005968002721F007010843586099
:102FE0003546A07880071FD5D4F88C004FEA3040D2
:102FF000042807D8DFE800F00E030A0E0E0001F0E7
:1030000041FC07E001274FF001080EE001F016FC3B
:10301000A24B0746B84647B9D4F88C0099680027F8
:1030200021F4E02108439860A846A078400701D425
:10303000454654E053F84C0C5FEA40790BD453F802
:103040004C0C40F0040043F84C0C53F84C0C00F0CE
:10305000040000900098924D5BF8050040F00100DC
:103060004BF80500FEF77AFE064658465BF8050069
:10307000C00708D1FEF772FE801B0228F5D903278E
:103080000325864B22E03D46844BFFB9186910F4B6
:10309000407012D0D4F8C01088420BD0186919695A
:1030A00041F4803120F440701961196921F48031B4
:1030B00019611861C00740F0DE80D4F8C0001969BA
:1030C0000027454621F4407108431861B9F1000F0B
:1030D00005D453F84C0C20F0040043F84C0CA078B5
:1030E000C00622D5D4F8A0004FEAB06003280DD85E
:1030F000DFE800F011020F1101F06FFB674B07468C
:1031000009E000BFE00C0246280C0246012701211D
:103110000CE001F097FB394647B9D4F8A0001968D4
:10312000002721F040610843186029462068020307
:1031300013D5D4F8982032B1B2F5005F18BFB2F5BC
:10314000805F40F08D803E4647B9544B00275B6856
:1031500023F440531A43514B5A600E46C10406D51E
:10316000D4F89C105A6822F400621143596081021D
:1031700010D5D4F8A410B1F5804F06D1DBF80020AB
:103180005D4642F48032CBF800205A6822F4804237
:1031900011435960010206D5D4F8B4101A6822F41C
:1031A000401211431960C10106D5D4F8B8101A684D
:1031B00022F4403211431960810106D5D4F8BC10C5
:1031C0009A6822F0180211439960400118D5D4F88A
:1031D000B000B0F5401F05D0B0F5001F06D101F0DA
:1031E00031FB03E001F0F9FA2C4B07463D4647B9A5
:1031F000D4F8B0005968002721F440110843586002
:103200003546E07800071BD5D4F8840080B1B0F1D2
:10321000007F09D0B0F1807F20D1DBF8000040F4BE
:103220000030CBF8000003E001F0D7FA1B4B074653
:103230003FB9D4F88400196821F040710843186040
:103240002F46E078C00606D5D4F8AC00996821F482
:103250000041084398603846BDE8F88F0127F0E741
:10326000012701267AE70127012699E601F0B5FA40
:103270000A4B074689E6FEF771FD084B064641F208
:10328000883A03270325186980073FF516AFFEF734
:1032900065FD801B014B5045F5D917E7E00C024650
:1032A00000FCFFFF2DE9F84F002800F000810D46DB
:1032B000A1490446086800F00F00A8420AD2086835
:1032C00020F00F0028430860086800F00F00A842B3
:1032D00040F0ED8020688A46A24BC1060AD561699C
:1032E0005A6802F07002914281BF5A6822F070025F
:1032F0001143596001070CD51968702202EA1112B6
:103300002169914205D91A6822F4E06242EA01116A
:10331000196041070AD5E1681A6802F0700291420B
:1033200081BF1A6822F070021143196081070AD523
:10333000A1681A6802F00F02914281BF1A6822F058
:103340000F02114319609946C00767D120688107B1
:103350000DD5A168D9F8002002F00F02914206D2E3
:10336000D9F8002022F00F021143C9F80010DAF852
:10337000001001F00F01A9420DD9DAF8001021F078
:103380000F012943CAF80010DAF8001001F00F010C
:10339000A94240F08C8041070DD5E168D9F80020A2
:1033A00002F07002914206D2D9F8002022F0700299
:1033B0001143C9F8001001070FD5D9F80010702289
:1033C00002EA11122169914207D2D9F8002022F4B1
:1033D000E06242EA0111C9F80010C0060DD560692B
:1033E000D9F8041001F07001884206D2D9F804100F
:1033F00021F070010843C9F8040000F0B9F8D9F8C9
:103400000010594A01F00F01515CC840574908604B
:103410004C480068BDE8F84FFEF7D6BC6068474FDF
:10342000C0B302283BD003283ED1D9F874005FEA2C
:1034300040780CD4D9F87400494640F00400C9F82B
:103440007400D9F8740000F0040000900098FEF7B2
:1034500085FC06463A488346385840030ED4B8F1F6
:10346000000F06D4D9F87400494620F00400C9F8CA
:103470007400386880011AD560681BE0584657F818
:103480000B004004EBD4FEF769FC811B03200229EA
:10349000F4D937E03868400709D500200AE03868D9
:1034A000800304D5022005E03968490502D40120D3
:1034B000BDE8F88FF96921F003010843F861FEF7D0
:1034C0004DFC0646606841F28838032822D0022865
:1034D0002CD058B9F86910F00C0F3FF437AFFEF755
:1034E0003DFC811B03204145F4D90BE0F86900F055
:1034F0000C0004283FF42AAFFEF730FC811B0320A8
:103500004145F3D9BDE8F88FFEF728FC811B032065
:103510004145F7D8F86900F00C000C28F4D115E704
:10352000FEF71CFC811B03204145EBD8F86900F035
:103530000C000828F4D109E700200240000C0246E4
:103540000CFCFFFF0400002080B500F011F80549D5
:10355000054A096801F00F01515CC8400349086041
:1035600080BD00BF200C0246047A0008080000203D
:103570003B494A69086A12F00C020ED00C2A04BFBB
:1035800000F00300012808D048699FED360A00F0DA
:103590000C00042816D134481BE00868334B0002A5
:1035A00047BF0868000FD1F8EC00C0F3033053F8B0
:1035B0002030002A00EE103A184618BF0020B8EE5E
:1035C000400A06E00020082A04BF47F64000C0F287
:1035D0007D100C2A43D110B5086A0B6A0A6A0C6B7D
:1035E000D206E40804EAE2726FF35F3201EE102AB9
:1035F00000F00302C3F303200130B8EE411A022A9F
:1036000004D0032A08BF9FED1B0A01E09FED180AB2
:10361000CA6A9FED193A6FF35F2202EE102AB8EEE4
:10362000422A01EE032AB7EE001A32EE011A02EE28
:10363000100AC86AC0F30660B8EE422A013080EE74
:10364000020A20EE010A01EE100AB8EE411A80EEDD
:10365000010ABCEEC00A10EE100ABDE81040704727
:10366000080C0246000000000024F400947A0008D0
:103670000024744B20BCBE4B0000003968B32DE918
:10368000FE43E4490446C868894600F00C0788698F
:1036900000F003082078C00621D42078C00763D04A
:1036A000082F5DD00C2F08BFB8F1030F58D0606809
:1036B000D94EB0F5803F00F09C82B0F5A81F00F015
:1036C0009082B0F5A02F40F0A682306840F48020B0
:1036D0003060306820F480108AE201207047D7B152
:1036E0000C2F08BFB8F1010F15D0CB4E3068E1693F
:1036F000002900F07F8140F0010001F04EF90546FD
:103700003068400700F18C81FEF728FB00F0F3FFE2
:10371000F6D9BDE8FE83E069002800F0ED82BE4DD9
:10372000606AA96809024FBFA9684946D9F8E41040
:10373000090401F07041884240F23A81002F00F004
:103740001A82A86840F40000A860606A01F0D6F808
:10375000C0F0FF81206AE96821F01F010843E4E21C
:103760006068002800F0C8822078800728D5042FE0
:1037700018D00C2F08BFB8F1020F13D0A64E306836
:10378000E168002900F00F8240F4807001F005F933
:1037900005463068400509D4FEF7E0FA00F0ABFFBB
:1037A000F7D9B6E7E068002800F0A6822069D9F8CA
:1037B00000104A4621F4F81141EA0040C9F800001F
:1037C0002078954F4946000771D42078400700F1D2
:1037D000B2802078800600F1F9802078000600F1A0
:1037E00033812078400600F17281A66B002E00F034
:1037F0009B83D9F80C0000F00C000C2840F03682B6
:10380000D9F81810D9F82400012E4A4600F0748225
:10381000E26B01F00303934240F06E82236CC1F32C
:103820000322013B9A4240F06782626C01F47041CE
:10383000914240F061820146A26C6FF35F21013A30
:10384000914240F05982E26CC0F34621013A914224
:1038500040F05282226DC0F30641013A914240F09D
:103860004B82616DC0F306600139884240F04482AA
:103870004946E06DD9F82810C1F3CC01814200F02F
:103880005383D9F8180020F01000C9F81800FEF78B
:1038900065FA0546FEF762FAA842FBD0E06DC0006B
:1038A000C9F82800D9F8180040F010003AE3D1F820
:1038B00084005FEA407803D400F041FF0290029850
:1038C000564EB859C0070DD100F0F2FF0546B85961
:1038D000C00707D1FEF742FA401B0228F7D90320A0
:1038E000BDE8FE83D9F8E01060694B46002800F07F
:1038F000BF80A06901F08052904200F03D8201F04B
:103900004062B2F1006F00F0F781490140F12D8271
:10391000D3F8E00020F0A05001F00CF80546D9F8EB
:10392000E000000140F11F82FEF718FA411B03205E
:103930000529F4D9EDE6D1F884005FEA407803D494
:1039400000F0FDFE01900198344EB859C0070BD12C
:1039500000F0AEFF0546B859C00705D1FEF7FEF9E5
:1039600000F0C9FEF7D9D4E6A0684A46C10740F086
:103970009180D9F8E010002821F00101C9F8E01089
:10398000D9F8E01021F00401C9F8E01040F090806F
:10399000FEF7E4F9054641F28836D9F8E0008007E1
:1039A00040F1D481FEF7DAF901F00CF8F5D9B0E670
:1039B000A96841F40001A96000F0A0FFC0F0A08058
:1039C000216AEA6822F01F02114390E13868E16A37
:1039D000002900F0F78040F4805000F04CFF0546CD
:1039E000386880043FF5F9AEFEF7B8F900F083FEC1
:1039F000F6D98EE620F0010000F0CFFF05463068D2
:103A000040077FF54AAEFEF7A9F900F074FEF6D93B
:103A10007FE600BF100C0246000C024628FCFFFFA8
:103A2000B06840F40000B060606AB16821F0704195
:103A30000143B0F1404FB160C0F0A380206AF1684B
:103A400021F01F0108437FE13868216B002900F055
:103A5000FE8040F4804000F00EFF05463868000408
:103A60003FF5BFAEFEF77AF900F045FEF6D950E615
:103A700021F0A05000F05EFF0546D9F8E00049466D
:103A8000000140F18C81FEF769F9411B03200529F3
:103A9000F3D93EE6D9F8E010400705D541F004001F
:103AA000C2F8E000D2F8E01041F00100C2F8E000F6
:103AB000FEF754F9054641F28836D9F8E000800750
:103AC00030D4FEF74BF900F07DFFF6D921E6606BAC
:103AD000002800F0F680B86840F40000B860D4E92F
:103AE0000901BA6822F070621143B0F1404FB96029
:103AF000C0F00581206AF96821F01F010843E8E160
:103B0000B0F1FF3F40F3ED80216AEA68B0F1804FE9
:103B100039BF22F4782242EAC13122F4F84242EA63
:103B20008121E4E0D9F8E000A1684A46090600F1E5
:103B3000B98020F0800041F28836C2F8E00000F041
:103B400047FE40F10981FEF709F900F03BFFF6D985
:103B5000DFE5B0F1FF3F40F3E480216AEA68B0F1AD
:103B6000804F39BF22F4782040EAC13022F4F84077
:103B700040EA8120D9E000F0B5FF002840F0BC8089
:103B8000DFE5B0F1FF3F40F3DB80216AF268B0F17E
:103B9000804F39BF22F4782040EAC13022F4F84047
:103BA00040EA8120D0E020F4807000F0F6FE054667
:103BB000306840057FF504AEFEF7D0F800F09BFDBD
:103BC000F6D9A6E520F4805000F055FE0546386889
:103BD00080047FF502AEFEF7C1F800F08CFDF6D947
:103BE00097E5306840F480203060306840F4801001
:103BF0003060306840F480303060FEF7AFF8054642
:103C0000306880033FF5B0ADFEF7A8F8411B0320F4
:103C10006429F5D97DE53168002821F480313160CF
:103C2000316821F480213160316821F480113160E4
:103C3000E3D1FEF793F80546306880037FF594AD35
:103C4000FEF78CF8411B03206429F5D961E520F4C7
:103C5000804000F010FE0546386800047FF5C1ADD5
:103C6000FEF77CF800F047FDF6D952E5386820F001
:103C7000807000F000FE0546022E09D138688001F0
:103C800040F19480FEF76AF800F035FDF6D940E582
:103C90003868800140F11481FEF760F800F02BFDD8
:103CA000F6D936E540F0800041F28836C2F8E000EF
:103CB00000F08EFD50D4FEF751F800F083FEF7D9E6
:103CC00027E5386820F0100000F0D5FD054638687B
:103CD00080067FF58AADFEF741F800F00CFDF6D9BD
:103CE00017E5216AEA6822F4787242EA4111E96034
:103CF000E7B900F0F7FEC8B10120BDE8FE83B0F1DE
:103D0000FF3F40F3E280216AFA68B0F1804F39BF8B
:103D100022F4782040EAC13022F4F84040EA8120C1
:103D2000D7E0206AE96800F035FDE860FFF70CFC99
:103D30007F480068FEF748F800287FF4EAACACE45E
:103D4000206AF16800F026FDF060A6E4D9F8E000F2
:103D50004946000600F1CF80B8F1000F3FF539ADBC
:103D600000F025FE35E54B46A069D3F8E01021F0C0
:103D700080510843C3F8E000D3F8E00040F08060D1
:103D800000F0D8FD0546D9F8E0004946000106D408
:103D9000FDF7E4FF411B03200529F4D9B9E4B8F18C
:103DA000000F3FF512AD00F002FE0EE5D9F88400D9
:103DB0005FEA407C0CD4D9F884104A4641F00401F3
:103DC000C9F88410D9F8841001F004010091009919
:103DD000594804F13C066FF0FF024FF6037157F8A3
:103DE00000E03B58804623F480233B5068CEA06C13
:103DF00002EB0522D9F8185001386FF35F2025EA4D
:103E0000010119434B46314311434C4AC9F818107C
:103E1000D9F8241011404FF47E420844E16C02EBC3
:103E200041214FF4FE0289B20844216D02EB0141A9
:103E30004FF0FE4201F4FE010844616D02EB0161A6
:103E400001F0FE410844C9F82400D9F8180020F018
:103E50001000C9F81800E06DC000C9F82800D9F8B2
:103E6000180040F01000C9F81800D9F81800A16D2A
:103E700020F00C000843C9F818005FEA4E3005D561
:103E800057F8080040F4802047F80800BCF1000F04
:103E900005D4D3F8840020F00400C3F88400386807
:103EA00040F0807000F0E7FC04463868800135D4AB
:103EB000FDF754FF011B03200229F6D9FFF729BCA7
:103EC000D9F818001B4908402CE0206AF96800F076
:103ED00061FCF860386840F0100000F0CCFC05464A
:103EE000386880063FF581ACFDF738FF00F003FC31
:103EF000F6D9FFF70EBCD1F8E00041F2883620F089
:103F00008000C1F8E00000F063FC7FF525AFFDF70D
:103F100025FF00F057FDF6D9FFF7FBBBD9F81800D5
:103F200040F48020C9F818000020BDE8FE8300BFDF
:103F300004000020FCFFF8FF0CFCFFFF0000808065
:103F400010B591E81D001043094A106044EA0302CD
:103F500088691043074A506008691368496923F06B
:103F6000FF13184340EA01401060002010BD00BF5D
:103F70001C780046207C004670B515480468200C6B
:103F8000C4F30423C4F3423604F03F05C8708D70B7
:103F90004B700E70CAB91B09220A2D0904F00F04D8
:103FA00043EA830302F00F0245EA850502EB430270
:103FB00004EB45044A7000F00F02C0B28C70000997
:103FC00000EB800002EB4000C870002070BD00BF15
:103FD0000478004670B5AE4883684B60C36803F44C
:103FE0004073B3F5807F03D10020086088602BE028
:103FF00003696FF3DF338B600468C4F38050C4F34C
:10400000062304F07F058D70C870C4F305404B7023
:104010000870CAB91B09220A2D090009260C04F0F0
:104020000F0403EB830302F00F0205EB850540EA62
:10403000800002EB430204EB45044A7006F00F02D5
:104040008C7002EB40000870002070BDB0B370B5FA
:10405000044690F82D0028B9002084F82C00204652
:1040600000F040F802209B4D84F82D002868C0061F
:1040700032D4CA20A8615320A86100F09FFBD0B9B8
:10408000E8681749261D0840E8604ECEA069314314
:104090000843E9680843E86043EA02406860D4E9FD
:1040A00009012A6822F4F852104308432860204688
:1040B00000F0A8FD20B1FF21A96170BD012070476B
:1040C000D4E907126069EB6823F060431A43114397
:1040D0000843E860FF20A86100F087FC70BD00BFC6
:1040E000BFFF8FFB10B5B4B0044602A8C021083052
:1040F000FCF7C7F82068664988421FD1002003906A
:104100004FF4802002904FF48070329002A8FEF7A6
:1041100069FE08B1FCF714FA0948816C41F40041CA
:104120008164016841F400110160016801F400112B
:1041300001910199016B41F40011016334B010BD8C
:10414000A80C02462DE9F04100F0D9FA42D084F8DB
:104150002D00012084F82C004AB16978EB7828788A
:10416000AA780902460341EA03418D1816E06E78E9
:10417000DFF82081F00642BF06F0EF0000F10A06EA
:104180006E70E878C04707463046C047000240EAF4
:104190000746A878C0470644287845030E4FCA2032
:1041A00038605320386000F009FB10B1FF213960FE
:1041B0000DE045EA060020F0C00047F8200C20463C
:1041C00000F020FDFF21396008B900F00EFC00214D
:1041D00084F82C10BDE8F081247800462DE9F843DE
:1041E00000F08DFA52D084F82D00294FCA201646CF
:1041F0007862012084F82C005320786200F0DEFA07
:1042000010B1FF2179623EE0F86800F44070B0F52B
:10421000807F30D0B8696EB1400659BF0020E87089
:10422000E87880056A782978AB78120242EA014181
:10423000CE1812E0400659BF0026EE70E8788605D9
:10424000DFF850902878C84780466878C847000251
:1042500040EA0848A878C847404430430E4908401F
:104260003860B86920F48020B861D5E903010843BB
:10427000B9690843B861204600F0C4FCFF217962A7
:1042800008B900F0B2FB002184F82C10BDE8F883D7
:10429000007800468D4B00087F7F7F0070B50D4E83
:1042A0000446306820F020003060FDF757FD0546D9
:1042B000306880060CD4FDF751FD401BB0F57A7FC5
:1042C000F6D9306880065EBF032084F82D0070BDEB
:1042D000002070BD0C780046042821D8DFE800F0EB
:1042E000030D10201B002148016821F0040101602A
:1042F0001F48016821F4400111E01C48012201E03F
:104300001A480222016821F004010160184801687E
:1043100062F3975103E01548016841F00401016020
:10432000704700BF411E0020B0EB116F1CBF012081
:1043300070470E4A51609060116841F003011160AE
:10434000704700BF09480068400744BF0420704719
:104350000748006800F44001A1F58000B0FA80F041
:104360004009B1F5000F08BF0220704710E000E0DF
:10437000E00C0246FEE70000324B984210D010B528
:1043800001F01F03C1F301211F24C2F384629C408A
:1043900000EB81009A40016BA1431143016310BD02
:1043A000100201F01F0192FAA2F0B0FA80F008BFEB
:1043B000C2F384600F22884002FA01F19A6A22EA6D
:1043C00001010843986270471E4B98421CD010B5FB
:1043D0000B0291FAA1F3B3FA83F308BFC1F384632C
:1043E000C1F3406101EB810400EB8100644241694B
:1043F00003EB4403072403EB43039A4004FA03F35B
:1044000099431143416110BD02EA01205A6922EA31
:1044100001210844586170470A4A0B4B904208D06A
:10442000826801F480311A40114301F1004181603A
:10443000704703F580309168084040F0004090607C
:10444000704700BF00100246C0FFFE7FB0B588B0C5
:1044500068462021FBF715FF1C484FF000511C4A0D
:10446000002404258166012180F84040C0E90D4404
:1044700080F82C4004778561C0E90244046104653A
:10448000446480F85440816280F824104FF4801115
:10449000C0E900210321C163FCF730FC08B1FCF73F
:1044A0004FF84FF6FF706946CDE90454039005209C
:1044B000029006200190074800900448FCF70AF992
:1044C00008B1FCF73DF808B0B0BD00BF9C05002066
:1044D00000800242000004CAE0B50A4800220168D8
:1044E00041F0010101600021006800F0010001902D
:1044F00001981E20FDF7CCFC1E20BDE88C40FDF786
:10450000B7BC00BF880C024683B00F48016841F079
:1045100004010160016801F004010291029901683F
:1045200041F080010160016801F080010191019971
:10453000016841F001010160006800F00100009095
:10454000009803B0704700BF8C0C02467047000013
:10455000B0B58EB007A818210430FBF792FE02A870
:104560001421FBF78EFE1E4800244FF080411D4DA4
:10457000FF227F230194C0E90844C0E90054C0E948
:104580000232C0E90444C0E90641FFF75FFD08B10B
:10459000FBF7D6FF12480C94CDE90A44079407A90B
:1045A000FFF7CEFC08B1FBF7CBFF00200122CDE9DD
:1045B00005008DF80A00ADF80800094802A9FFF7C8
:1045C0000DFE08B1FBF7BCFF07480122019004482B
:1045D00001A9FFF7B7FD08B1FBF7B2FF0EB0B0BD00
:1045E000840B00200078004601010124F0B589B059
:1045F00024484FF4C0510022002302F047FD00BBC5
:1046000008A9012000F02EFD044607A9002000F0B3
:1046100029FD054606A800F067FD064605A800F03E
:1046200055FDDDE90572DDE90731DFF85CC0CDE954
:10463000006202AA82E8811020462A4602F08CFA23
:1046400010B1FF2009B0F0BD104C11481149C4E968
:10465000021011482546002145F8040F022000F001
:10466000FFFC20600220002100F01AFD03460B48E9
:104670000B492268009501F0ABFE002818BFFF200F
:10468000E0E700BFB80B0020534D00089C0000205D
:10469000514D0008454D00083D4D000840000020E8
:1046A000415F000880B50F4802214FF4007241724B
:1046B0000621C2800171074901600021C0F80A107B
:1046C000C181FEF7B9F918B1BDE88040FBF738BFEA
:1046D00080BD00BF00000442FEE7FEE70148FDF791
:1046E00019BE00BFA0060020012084F8540094F8F1
:1046F000501009067047411B0320022970470D46E0
:1047000090F82C10044602200129704749B2B1F1FB
:10471000FF3F00EBC00104EB81017047C0F80418B3
:10472000002070478020D4F89460A073284601F0E0
:104730009DBFDBF81830584614214A461847D1F877
:10474000840040F00400C1F88400D1F8840000F037
:1047500004007047044690F89404012870470099BB
:10476000013100910099B1F1706F70470220092169
:10477000122202F07DBC2068D0F8D01041F0010177
:10478000C0F8D010704741F828000120256166600C
:104790002073704721F4787141EA40107047F06A45
:1047A00020F01000F062306C8843E16940EAC100FB
:1047B0003064F06A40F01000F0627047204600F06C
:1047C000F7B9002180F84C10402181650121704724
:1047D000D9F8E00049460005704704F1080000F0F0
:1047E0000BB9002084F87400704780F854101973D6
:1047F000002181651961704794E80F006FF0FF0593
:1048000040F6037705EB0121356BBD432843084390
:10481000704794E80F006FF0FF0540F6037705EB53
:104820000121F56ABD432843084370473060FDF716
:1048300095BA0446006880684007704704F12C0070
:1048400000F014B9DBF80000594640F40030CBF812
:1048500000007047A06F40F01000A067E06F40F0CC
:104860000100E067012070BD2046FBF787BD0121F4
:104870002061217370473860FDF770BA002084F81A
:10488000940410BDDBF80000594640F48030CBF8AA
:104890000000704701F1806102F01F02012303FA5A
:1048A00002F201F0F8411143704706B0BDE8F08113
:1048B000B85940F00100B851FDF750BADAF80000DD
:1048C000416970470A5842F000620A500A5842F0A3
:1048D00080420A5042F210727047A06F40F0100000
:1048E000A067E06F40F00100E06701207047D0F85A
:1048F000C41041F08071C0F8C4107047A96821F05D
:1049000070410143B0F1404FA9607047DAF80000F0
:1049100000F0C4BF84F874002046FBF75DBD0020A2
:1049200084F89404B0BD2046FBF756BD20463146BE
:10493000FBF7B1BDC3F8E000FDF710BA0840511E07
:104940004FF4FE026FF35F2108444FF47E4101EB08
:10495000432189B20844216902EB01414FF0FE4234
:1049600001F4FE010844616902EB016101F0FE41BE
:1049700008447047012084F8940420687047D1F8F7
:10498000082322F0E07210437047410800F0020053
:1049900061F3596200F1050870473060FDF7DEB938
:1049A0000121206884F89414617B01297047D1F8B3
:1049B000840020F00400C1F8840070470146DAF852
:1049C00000007047411B0320B1427047306B20F05C
:1049D00010003063B06C8843E16940EAC100B06404
:1049E000306B40F0100030637047012084F82D00D8
:1049F0000020704770470000F8B5CE4E044630687E
:104A000020F08060FFF712FF05463068000105D5F1
:104A1000FDF7A4F9401B0228F7D925E0FFF7F9FEBE
:104A20002F49F062F06BFFF789FFF063A069F16A2C
:104A300021F00C010843F062206AF16A08434FF646
:104A4000F871F062FFF7ABFE306840F08060FFF76E
:104A5000EDFE04463068000144BF0020F8BDFDF7BC
:104A60007DF9001B0328F5D30320F8BDF8B5B14E3E
:104A70000446306820F08050FFF7D8FE05463068C5
:104A8000800005D5FDF76AF9401B0228F7D925E01B
:104A9000FFF7B2FE12493063706CFFF74FFF70648E
:104AA000A069316B21F00C0108433063206A316B3F
:104AB00008434FF6F8713063FFF788FF306840F025
:104AC0008050FFF7B3FE04463068800044BF0020EA
:104AD000F8BDFDF743F9001B0328F5D30320F8BD0B
:104AE00000008080BCB5274D0446286840070FD4DD
:104AF000286840F004002860286800F00400019055
:104B00000198FEF75FF9296821F00401296001E0AE
:104B1000FEF758F940F48031B1F5403F11D1002142
:104B2000B4F1805F38BF01211748026822F00F02FC
:104B30000A440260006800F00F00401A18BF01200C
:104B4000BCBD0021B1EB147F06D1B0F5803F1CBF86
:104B50000120BCBD0321E7E7B4F1005F06D90028BE
:104B6000E2D1B4F1405F98BF0121DDE7B4F1805F8D
:104B700005D10221B0F5803F08BF0121D4E7012112
:104B8000D2E700BF940C02460020024009280146EB
:104B900098BF09210A22B1FBF2F202EB8203A1EBDA
:104BA0004303591A084440EA0210C0B2704700009B
:104BB0002DE9F041124E8046306840061CD4306822
:104BC0000027012440F080003060FDF7C7F805465B
:104BD0003068E14341EA9010C0070ED1FDF7BEF8FE
:104BE000401BB0F57A7FF3D93068400605D403271F
:104BF000002488F82D70EBE70027F8B2BDE8F081BB
:104C00000C780046B0B5134D044655F80C0C20F056
:104C1000800045F80C0C2868800607D42046FFF772
:104C20003DFB78B1032084F82D00B0BD286820F04A
:104C3000200028602046FFF731FB28B1032084F8CC
:104C40002D0002E00020B0BD0020296841F02001C5
:104C50002960B0BD187800467047FDF783B80000A2
:104C6000B0B59EB006A82C210C30FBF70AFB6846B5
:104C70001821FBF706FB4FF44030FEF759F808B156
:104C800072B6FEE7FEF7A6F81948022203240025B3
:104C9000016862F3C40101604FF48050CDE914242F
:104CA0001D95CDE91B25CDE9192217901190812082
:104CB00008904FF4803007902520069040201890EF
:104CC0000520169006A8FEF7D9FC08B172B6FEE7DB
:104CD0001F200421CDE90145CDE90355059500903C
:104CE0006846FEF7DFFA08B172B6FEE71EB0B0BD47
:104CF000F00C024610B50E4801220F4CD0F880107F
:104D000041F47001C0F880100A490A600022CA61AB
:104D10000A624A620B6823400B608A620B6823F4C4
:104D200080230B600A654FF00061016010BD00BF79
:104D300008ED00E0000C0246FFFFF6EA03490860B8
:104D4000704700BF014800210160704798050020AE
:104D5000704700207047A0B1B0B500230446257805
:104D600015B101340133FAE7DCB2148001220B7073
:104D7000037823B1D4B2013001320B55F8E7BDE816
:104D8000B04070472DE9FE4F064696488A460023FC
:104D90000292C1F80E004FF400708881924888603A
:104DA0004FF0804048609149CAF800101221012A52
:104DB000C6E9481311460DD1CAF816008C480121E6
:104DC000CAF812001C20AAF81A10C6F820014FF4E5
:104DD000007000E04020874C4FF05C0E06F10C0B99
:104DE0004FF000080190B8F1030F00F0E680706802
:104DF00002289CBFB168022902D908F10108F2E734
:104E000014F80820002AF8D000FB0E673B4653F840
:104E1000185F002D40F0CC80D6F8205138613A73ED
:104E20000AEB050901251D60029B337070B9192337
:104E300089F80830704BC9F8043040F20923C9F8EA
:104E40000030D6F824310933C6F82431022A40F064
:104E5000AF800022202321B1F55801395C332A4468
:104E6000F9E700FB0EB0511C019F644DCDF800A086
:104E7000DA463B4680F84F1080F84E20022103228C
:104E8000C0E90421304601210222A8473046812191
:104E900002223B46A8473046822103220823A84726
:104EA000D6F824014FF05C0E716840F60832DDF848
:104EB00000A04FF488754FF0000C564F20F80920E1
:104EC00001FB0EB200EB0901423092F84E308B70BC
:104ED00004234B724A4BC1F803304FF41063A1F81E
:104EE000073092F84E308D82464DC1F81650464D2F
:104EF000C1F80F50454DC1F80B5081F813C08B72AB
:104F0000062592F84F3081F8215042F20545A1F86C
:104F10001F503F4DC1F81B508B7640F2075592F859
:104F20004E3081F8223092F84F308D8481F8233052
:104F3000032381F8273092F82430D28C0A8540F27E
:104F4000094281F82630052381F82A30A1F82B2068
:104F5000726802FB0EB292F84F30C1F82E702E4FDD
:104F6000C1F83270022781F82D30137E528B81F800
:104F7000377081F83AC081F83E7081F836300A8780
:104F8000A1F83B50726802FB0EB2937F128C81F83D
:104F900041C0C6F82401A9F8020099F8040081F87C
:104FA0003D30A1F83F20023089F80400D6E9010124
:104FB00001310130C6E901011FE7B068012802D9BB
:104FC0000120EF2104E02078022808D100200221EE
:104FD0008AF8060002208AF804108AF80500504674
:104FE000BDE8FE8F01020301830410571201000285
:104FF0000A0600020C000020000100C01D5000083D
:105000000202020105240100010005240001020240
:105010000424020200020A0000000705F0B5D0F8DF
:1050200004C05C2500270CFB050505F12806ED6989
:10503000BD4205D0347814B106360137F8E73D4655
:105040005C240CFB040005EB450400EB4400012448
:1050500080F82840C38480F8252080F82410F0BD13
:105060000120704770B50C4618B10B4D094E024631
:1050700002E0154E094D002230462946FFF782FE18
:1050800006F5927006F59071096800680844206082
:10509000284670BD6403002074010020AC0000208D
:1050A00070B5094B00220024B2F58A7F04BFE0B23C
:1050B00070BD9D182E7B864202BF2E7D8E4295F8D4
:1050C0005A405C32F0E700BF3C020020B0B5054D0D
:1050D000044640F2094028802846FBF7DDF82060AE
:1050E0002846B0BD8C0400202DE9FC47214D8046A8
:1050F00001200DF1060ADFF894905246A87040F2A4
:105100000940E91C28800020ADF806001AA0C84715
:105110009DF806400927042602215246201DC0B2F0
:105120002F54601DC0B22E54A01DC0B22954E01DE2
:1051300055FA80F116A0C8479DF8060003222044C6
:1051400000F10801C9B26F5400F10901C9B26E54EF
:1051500000F10A010B30C9B26A5455FA80F111A06E
:105160005246C8472846FBF797F8C8F8000028467B
:10517000BDE8FC879004002053544D6963726F654D
:105180006C656374726F6E6963730000574D00083D
:1051900053544D333220555342204465766963653C
:1051A00000000000303030303030303030303031BE
:1051B0000000000070B5D0F81C480A784E78530102
:1051C00002F00F05012E16D1012606FA05F52C4333
:1051D000C0F81C481844D0F800391B0423D400F54B
:1051E0001060036843EA82520B7989686FF3DF210C
:1051F00041EA834113E04FF48032AA402243C0F8D1
:105200001C281844D0F8002B12040CD40A798968A1
:1052100000F530606FF3DF2141EA824102681143FB
:10522000024A11430160002070BD00BF00800010E1
:10523000D0F8001940F2FF729143C0F80019D0F87D
:10524000041841F48071FFF769BA81B0C16841F078
:105250004001C160002100917246FFF780FA964636
:1052600013D80169B1F1FF3FF6DC0021009101691B
:1052700041F0010101617246FFF771FA964604D8C8
:105280000169C907F7D1002100E00321826B13F403
:105290007F4F22F4803208BF02F5803282630846D5
:1052A00001B07047B0B50A784B785101012B07D196
:1052B00043180124D3F8005903F51061154B09E098
:1052C00043184FF4803403F53061D3F8005B114B81
:1052D00003F17073B5F1FF3F07DC0D6845F0006521
:1052E0000D600D6845F080450D6002F00F0204FA74
:1052F00002F2D0F83C489443C0F83C48D0F81C482F
:1053000024EA0202C0F81C2808681840086000203F
:10531000B0BD00BF007833ECD0F8001E21F00301CF
:10532000C0F8001ED0F8041821F00201FFF7F6B90A
:10533000D0F8001E21F00301C0F8001ED0F80418B8
:1053400041F00201FFF7EAB92DE9FE4F02928B46C8
:105350008246180C41210022502903D04AF821200E
:105360000131F9E7C0B2019030B1DAF8380040F409
:105370000010CAF8380017E0DAF8040840F002001C
:10538000CAF80408DAF8380020F40010CAF8380027
:10539000DAF8000040F04000CAF80000DAF8000037
:1053A00040F08000CAF800004FF0000910210AF513
:1053B0000068CAF8009EDAF8000840F00300CAF856
:1053C0000008504600F012FA0090504600F0F1F943
:1053D0005FFA8BF10AF510624FF67F330026C8F8AA
:1053E0001090C8F81490C8F81C904901B1420FD031
:1053F0004FF090459759002E08BF4FF0006505EA21
:10540000E775955195192036C5F81090AB60EDE71A
:105410000AF5306200234FF67F350026B1420ED0E8
:105420004FF090449759002E08BF4FF0006404EAF3
:10543000E7749451941920362361A560EEE7D8F8FB
:10544000101021F48071C8F810100021CAF818104B
:105450006FF080411BF47F0FCAF8141005D1DAF801
:10546000181041F01001CAF81810DAF818100E4A96
:105470001143CAF81810029911F47F0F05D0DAF819
:10548000181041F00801CAF818100199012905D136
:10549000DAF81810054A1143CAF8181000990843A1
:1054A00018BF0120BDE8FE8F00383C80040000409A
:1054B000816821F0010181600020704710B5036C04
:1054C000134CA34203D3D0F8003B002B1ED400237F
:1054D000C0F8103B0129D0F8103B43F40023C0F87A
:1054E000103BD0F8103B43F01803C0F8103BD0F845
:1054F000103B43F0C043C0F8103B07D1C0F8142B59
:10550000D0F8001B41F08021C0F8001B002010BD26
:105510000B30544F0A784B7852011044012B0DD1B7
:10552000D0F8002922F40012C0F80029097901F00E
:10553000FE01022913D100F510600CE0D0F8002B19
:1055400022F40012C0F8002B097901F0FE010229B3
:1055500005D100F53060016841F080510160002004
:1055600070470A784B7851010144012B19BF01F5AE
:105570003060D1F8001B01F51060D1F80019002946
:1055800004D41AB1016821F080410160016841F43E
:105590000011016000207047F8B54B780C78012BA2
:1055A0001AD100EB441CDCF810590E690CF510639D
:1055B000B6B36FF31205002C1D611D696FF3DC4556
:1055C0001D618D6858D07719013FB7FBF5F55A4F2B
:1055D00007EAC5471D6956E000EB4413D3F8105B9A
:1055E0006FF31205C3F8105BD3F8105B6FF3DC4563
:1055F000C3F8105B03F530638D680E69E4B1F6B152
:105600007419013CB4FBF5F6B4B26C434A4D0C621C
:1056100005EAC6456FF3DF441E6935431D6115E099
:105620006FF3DC4500261D611D6945F400251D61F1
:105630001F696FF3120738E006B10D610D626FF359
:10564000DF451C692C431C614FF400241D692C4369
:10565000012A1C6102D1CA6802B15A610979012983
:1056600038D1D0F80808C0054FF0805058BF4FF02F
:105670000050196808432CE0AE4284BF0D612E46ED
:105680004FF400251F693D431D6135466FF3DF452B
:105690001F693D431D610D79012D07D11D6925F05D
:1056A000C0451D611D6945F000571F61012A17D1D2
:1056B000CA690AB1CCF81429097901290AD1D0F8AC
:1056C0000818DCF80009C9054CBF40F0805040F0D4
:1056D00000501860186840F0044018600020F8BDC1
:1056E000630100F51065EF5847F00447EF500F795C
:1056F000012F13D1D0F8087853F805C0FF054FF0FB
:10570000805758BF4FF0005747EA0C075F51B3B2BC
:10571000C9680092224600F099F9DFE7002EDDD03B
:1057200004F00F01012202FA01F1D0F834281143EC
:10573000C0F83418D2E700BF0000F81F81B0002283
:1057400000920A784B785101012B14D100F51060BA
:105750004258B2F1FF3F21DC7346FFF7B3F89E4693
:10576000009B01330093009B934219D84358B3F137
:10577000FF3FF5DD12E000F530604258B2F1FF3F27
:105780000CDC7346FFF79EF89E46009B01330093A6
:10579000009B934204D84358002BF6D4002000E02D
:1057A000012001B07047816841F001018160002053
:1057B000704781B0002100917246FEF7D0FF9646F7
:1057C00011D80169B1F1FF3FF6DC002100911021F1
:1057D00001617246FEF7C3FF964604D80169C90607
:1057E000F7D4002000E0032001B0704781B0002210
:1057F0000092009A01320092009AB2F1706F12D8B2
:105800000269B2F1FF3FF4DC8901002220310092ED
:1058100001617246FEF7A3FF964604D80169890626
:10582000F7D4002000E0032001B07047D0F808084A
:1058300002A100F00600085C704700BF000F020FD5
:105840000F0F0200406900F001007047D0F81818EF
:10585000D0F81C08084080B27047D0F81818D0F86B
:105860001C080840000C704710B5D0F81028D0F87C
:10587000344801F00F0300EB411024FA03F3D0F891
:105880000809DB01DBB21A43104010BD00EB4111E7
:10589000D1F8081BD0F814080840704741698069A6
:1058A00008407047B0B593084FF4805423B10559B0
:1058B000013B41F8045BF9E712F003020BD04FF40F
:1058C0008053C058002320FA03F40833013A01F84A
:1058D000014B1404F7D10846B0BDB0B50446C0680A
:1058E00020F0C040E060A1B101291CBF0120B0BD83
:1058F000E068002540F00050E0600A20FCF704F961
:10590000616905F10A00C90713D1BE2D0546F4D31C
:105910000FE0E068002540F08040E0600A20FCF7DE
:10592000F3F8616905F10A00C90702D0BE2D0546EA
:10593000F4D3C838B0FA80F04009B0BDD0F80028E0
:1059400001F07F0122F4FE62C0F80028D0F80028A0
:1059500042EA0111C0F8001800207047022A34D131
:10596000284A294B0A449A4202D24FF470512EE041
:10597000264A274B0A449A4202D24FF4605126E04D
:10598000244A254B0A449A4202D24FF450511EE059
:10599000224A234B0A449A4202D24FF4405116E065
:1059A000204A214B0A449A4202D24FF430510EE071
:1059B0001E4A1F4B0A449A4202D24FF4205106E07D
:1059C0001C4A1D4B0A449A420AD24FF41051C26835
:1059D00022F47052C260C2681143C1600020704757
:1059E000164A174B0A449A4202D24FF40051EEE78E
:1059F000144A154B0A444FF4C0519A4238BF4FF431
:105A0000E051E4E7405327FF00350C00401E1BFF28
:105A100040420F0000DC0BFF804F1200808CF9FE2B
:105A200020D6130060B6E5FE60E3160000D3CEFE7C
:105A300040771B00C05BB3FEC091210000CA91FEFD
:105A400020753800E05459FEE09C410010B5029CDE
:105A50000CB1002010BD0333120300F580509B08E9
:105A6000002BF6D051F8044B013B1450F8E7FEE749
:105A7000B0B54B6903F07F04052C26D80246D0F858
:105A800094000579AC4220D204EB44041D0602EBDD
:105A9000840404F14C0258BF221D5468E50714D158
:105AA00044F0010433F080058A60C2E9001403F079
:105AB00080045572947206D08C698A8BD9B204F036
:105AC0000303FCF795FB0020B0BD1420B0BD80B5EA
:105AD000D0F894008A680023097D5360FCF725FB09
